:020000020000FC
:100000000E940C000E9415000099FECF119A0E94D8
:100010001F000E941800F8CF02E001B902E404B901
:100020000FE00AB900EF0BB9089500E40CBD089584
:100030001EBD11980DB507FFFDCF119A08954FE031
:100040004BB967EF70E083E06BB90E9447004C99B1
:1000500001C011C04D9902C071E00DC04E9902C09F
:1000600072E009C04F9902C073E005C0803069F0AA
:1000700067958A95E9CF770F770F780F172F1A308A
:1000800010F0195A0895105D08951FEF08950AE0C1
:100090000093810007E20093890000E1009388004B
:1000A00000270093850000938400B19BFECFB19A96
:0C00B00000270093800000938100089559
:00000001FF
