:020000020000FC
:0200000002C03C
:100004008FC0299A0E9410000E9415000E942500AA
:100014000E9433000E944E002998FECF07EF01B9D9
:100024000E948A00089502E00E94550008E20E949E
:1000340055000EE00E94550001E00E94550000E8C2
:100044000E945500089502EB04B901E50CBD2C9AF9
:1000540008952C981EBD0DB507FFFDCF299A1EB536
:1000640008950CE00093C40002E00093C00008E18E
:100074000093C10006E00093C20008950091C000FF
:1000840005FFFCCF1093C60008950091C00007FF40
:10009400FCCF1091C6000895789402E000936900A3
:1000A40001E00DBB089534D0202F207F22B9129A8D
:1000B4001CD012981DD00295007F02B9129A15D057
:1000C400129816D0089524D0202F207F22B9109A98
:1000D400129A0BD012980CD00295007F02B9109A94
:1000E400129A03D0129804D00895000000000895D5
:1000F4001F9314E60E9477001A95E1F71F91089563
:100104001F9314E10E947A001A95E1F71F91089554
:100114001F931AE00E9482001A95E1F71F91089537
:1001240010E00E942B00299A1F3F39F0012F0E94F2
:10013400650000E80E94550005C001E0B4DF00E856
:0A014400B2DF18950E9440001895E4
:00000001FF
